{
  "_format": "hh-sol-artifact-1",
  "contractName": "gameVerse",
  "sourceName": "contracts/gameVerse.sol",
  "abi": [
    {
      "inputs": [
        {
          "internalType": "address",
          "name": "_nftAddress",
          "type": "address"
        }
      ],
      "stateMutability": "nonpayable",
      "type": "constructor"
    },
    {
      "stateMutability": "payable",
      "type": "fallback"
    },
    {
      "inputs": [],
      "name": "getHistory",
      "outputs": [
        {
          "internalType": "uint256",
          "name": "",
          "type": "uint256"
        }
      ],
      "stateMutability": "view",
      "type": "function"
    },
    {
      "inputs": [],
      "name": "nftAddress",
      "outputs": [
        {
          "internalType": "address",
          "name": "",
          "type": "address"
        }
      ],
      "stateMutability": "view",
      "type": "function"
    },
    {
      "inputs": [
        {
          "internalType": "string",
          "name": "_metaUrl",
          "type": "string"
        },
        {
          "internalType": "string",
          "name": "_name",
          "type": "string"
        },
        {
          "internalType": "string",
          "name": "_price",
          "type": "string"
        }
      ],
      "name": "order",
      "outputs": [],
      "stateMutability": "payable",
      "type": "function"
    },
    {
      "inputs": [
        {
          "internalType": "uint256",
          "name": "",
          "type": "uint256"
        }
      ],
      "name": "orderHistory",
      "outputs": [
        {
          "internalType": "address",
          "name": "buyerAddress",
          "type": "address"
        },
        {
          "internalType": "string",
          "name": "name",
          "type": "string"
        },
        {
          "internalType": "string",
          "name": "price",
          "type": "string"
        }
      ],
      "stateMutability": "view",
      "type": "function"
    },
    {
      "stateMutability": "payable",
      "type": "receive"
    }
  ],
  "bytecode": "0x608060405234801561001057600080fd5b50604051610ae9380380610ae98339818101604052810190610032919061008d565b806000806101000a81548173ffffffffffffffffffffffffffffffffffffffff021916908373ffffffffffffffffffffffffffffffffffffffff160217905550506100ff565b600081519050610087816100e8565b92915050565b60006020828403121561009f57600080fd5b60006100ad84828501610078565b91505092915050565b60006100c1826100c8565b9050919050565b600073ffffffffffffffffffffffffffffffffffffffff82169050919050565b6100f1816100b6565b81146100fc57600080fd5b50565b6109db8061010e6000396000f3fe6080604052600436106100435760003560e01c80630d99a9551461004c5780635bf8633a1461008b578063aa15efc8146100b6578063c11d732d146100e15761004a565b3661004a57005b005b34801561005857600080fd5b50610073600480360381019061006e919061069e565b6100fd565b60405161008293929190610792565b60405180910390f35b34801561009757600080fd5b506100a0610267565b6040516100ad9190610747565b60405180910390f35b3480156100c257600080fd5b506100cb61028b565b6040516100d891906107d7565b60405180910390f35b6100fb60048036038101906100f69190610607565b610298565b005b6001818154811061010d57600080fd5b90600052602060002090600302016000915090508060000160009054906101000a900473ffffffffffffffffffffffffffffffffffffffff1690806001018054610156906108ed565b80601f0160208091040260200160405190810160405280929190818152602001828054610182906108ed565b80156101cf5780601f106101a4576101008083540402835291602001916101cf565b820191906000526020600020905b8154815290600101906020018083116101b257829003601f168201915b5050505050908060020180546101e4906108ed565b80601f0160208091040260200160405190810160405280929190818152602001828054610210906108ed565b801561025d5780601f106102325761010080835404028352916020019161025d565b820191906000526020600020905b81548152906001019060200180831161024057829003601f168201915b5050505050905083565b60008054906101000a900473ffffffffffffffffffffffffffffffffffffffff1681565b6000600180549050905090565b60008060009054906101000a900473ffffffffffffffffffffffffffffffffffffffff1690508073ffffffffffffffffffffffffffffffffffffffff1663eacabe1433866040518363ffffffff1660e01b81526004016102f9929190610762565b602060405180830381600087803b15801561031357600080fd5b505af1158015610327573d6000803e3d6000fd5b505050506040513d601f19601f8201168201806040525081019061034b91906106c7565b503073ffffffffffffffffffffffffffffffffffffffff166108fc349081150290604051600060405180830381858888f19350505050158015610392573d6000803e3d6000fd5b5061039b61049b565b33816000019073ffffffffffffffffffffffffffffffffffffffff16908173ffffffffffffffffffffffffffffffffffffffff1681525050838160200181905250828160400181905250600181908060018154018082558091505060019003906000526020600020906003020160009091909190915060008201518160000160006101000a81548173ffffffffffffffffffffffffffffffffffffffff021916908373ffffffffffffffffffffffffffffffffffffffff16021790555060208201518160010190805190602001906104749291906104d2565b5060408201518160020190805190602001906104919291906104d2565b5050505050505050565b6040518060600160405280600073ffffffffffffffffffffffffffffffffffffffff16815260200160608152602001606081525090565b8280546104de906108ed565b90600052602060002090601f0160209004810192826105005760008555610547565b82601f1061051957805160ff1916838001178555610547565b82800160010185558215610547579182015b8281111561054657825182559160200191906001019061052b565b5b5090506105549190610558565b5090565b5b80821115610571576000816000905550600101610559565b5090565b600061058861058384610823565b6107f2565b9050828152602081018484840111156105a057600080fd5b6105ab8482856108ab565b509392505050565b600082601f8301126105c457600080fd5b81356105d4848260208601610575565b91505092915050565b6000813590506105ec8161098e565b92915050565b6000815190506106018161098e565b92915050565b60008060006060848603121561061c57600080fd5b600084013567ffffffffffffffff81111561063657600080fd5b610642868287016105b3565b935050602084013567ffffffffffffffff81111561065f57600080fd5b61066b868287016105b3565b925050604084013567ffffffffffffffff81111561068857600080fd5b610694868287016105b3565b9150509250925092565b6000602082840312156106b057600080fd5b60006106be848285016105dd565b91505092915050565b6000602082840312156106d957600080fd5b60006106e7848285016105f2565b91505092915050565b6106f98161086f565b82525050565b600061070a82610853565b610714818561085e565b93506107248185602086016108ba565b61072d8161097d565b840191505092915050565b610741816108a1565b82525050565b600060208201905061075c60008301846106f0565b92915050565b600060408201905061077760008301856106f0565b818103602083015261078981846106ff565b90509392505050565b60006060820190506107a760008301866106f0565b81810360208301526107b981856106ff565b905081810360408301526107cd81846106ff565b9050949350505050565b60006020820190506107ec6000830184610738565b92915050565b6000604051905081810181811067ffffffffffffffff821117156108195761081861094e565b5b8060405250919050565b600067ffffffffffffffff82111561083e5761083d61094e565b5b601f19601f8301169050602081019050919050565b600081519050919050565b600082825260208201905092915050565b600061087a82610881565b9050919050565b600073ffffffffffffffffffffffffffffffffffffffff82169050919050565b6000819050919050565b82818337600083830152505050565b60005b838110156108d85780820151818401526020810190506108bd565b838111156108e7576000848401525b50505050565b6000600282049050600182168061090557607f821691505b602082108114156109195761091861091f565b5b50919050565b7f4e487b7100000000000000000000000000000000000000000000000000000000600052602260045260246000fd5b7f4e487b7100000000000000000000000000000000000000000000000000000000600052604160045260246000fd5b6000601f19601f8301169050919050565b610997816108a1565b81146109a257600080fd5b5056fea2646970667358221220d70b06deab101ed102c5edd0a8ed7db08d00e74e67aaf392d4cd65c03410a00f64736f6c63430008000033",
  "linkReferences": {},
  "deployedLinkReferences": {}
}