{
  "_format": "hh-sol-artifact-1",
  "contractName": "GameVerseNFT",
  "sourceName": "contracts/gameVerseNFT.sol",
  "abi": [
    {
      "inputs": [],
      "stateMutability": "nonpayable",
      "type": "constructor"
    },
    {
      "anonymous": false,
      "inputs": [
        {
          "indexed": true,
          "internalType": "address",
          "name": "owner",
          "type": "address"
        },
        {
          "indexed": true,
          "internalType": "address",
          "name": "approved",
          "type": "address"
        },
        {
          "indexed": true,
          "internalType": "uint256",
          "name": "tokenId",
          "type": "uint256"
        }
      ],
      "name": "Approval",
      "type": "event"
    },
    {
      "anonymous": false,
      "inputs": [
        {
          "indexed": true,
          "internalType": "address",
          "name": "owner",
          "type": "address"
        },
        {
          "indexed": true,
          "internalType": "address",
          "name": "operator",
          "type": "address"
        },
        {
          "indexed": false,
          "internalType": "bool",
          "name": "approved",
          "type": "bool"
        }
      ],
      "name": "ApprovalForAll",
      "type": "event"
    },
    {
      "anonymous": false,
      "inputs": [
        {
          "indexed": true,
          "internalType": "address",
          "name": "previousOwner",
          "type": "address"
        },
        {
          "indexed": true,
          "internalType": "address",
          "name": "newOwner",
          "type": "address"
        }
      ],
      "name": "OwnershipTransferred",
      "type": "event"
    },
    {
      "anonymous": false,
      "inputs": [
        {
          "indexed": true,
          "internalType": "address",
          "name": "from",
          "type": "address"
        },
        {
          "indexed": true,
          "internalType": "address",
          "name": "to",
          "type": "address"
        },
        {
          "indexed": true,
          "internalType": "uint256",
          "name": "tokenId",
          "type": "uint256"
        }
      ],
      "name": "Transfer",
      "type": "event"
    },
    {
      "inputs": [
        {
          "internalType": "address",
          "name": "_gameVerseServiceContractAddress",
          "type": "address"
        }
      ],
      "name": "addContractCaller",
      "outputs": [],
      "stateMutability": "nonpayable",
      "type": "function"
    },
    {
      "inputs": [
        {
          "internalType": "address",
          "name": "to",
          "type": "address"
        },
        {
          "internalType": "uint256",
          "name": "tokenId",
          "type": "uint256"
        }
      ],
      "name": "approve",
      "outputs": [],
      "stateMutability": "nonpayable",
      "type": "function"
    },
    {
      "inputs": [
        {
          "internalType": "address",
          "name": "owner",
          "type": "address"
        }
      ],
      "name": "balanceOf",
      "outputs": [
        {
          "internalType": "uint256",
          "name": "",
          "type": "uint256"
        }
      ],
      "stateMutability": "view",
      "type": "function"
    },
    {
      "inputs": [],
      "name": "gameVerseServiceContractAddress",
      "outputs": [
        {
          "internalType": "address",
          "name": "",
          "type": "address"
        }
      ],
      "stateMutability": "view",
      "type": "function"
    },
    {
      "inputs": [
        {
          "internalType": "uint256",
          "name": "tokenId",
          "type": "uint256"
        }
      ],
      "name": "getApproved",
      "outputs": [
        {
          "internalType": "address",
          "name": "",
          "type": "address"
        }
      ],
      "stateMutability": "view",
      "type": "function"
    },
    {
      "inputs": [
        {
          "internalType": "address",
          "name": "owner",
          "type": "address"
        },
        {
          "internalType": "address",
          "name": "operator",
          "type": "address"
        }
      ],
      "name": "isApprovedForAll",
      "outputs": [
        {
          "internalType": "bool",
          "name": "",
          "type": "bool"
        }
      ],
      "stateMutability": "view",
      "type": "function"
    },
    {
      "inputs": [
        {
          "internalType": "address",
          "name": "recipient",
          "type": "address"
        },
        {
          "internalType": "string",
          "name": "tokenURI",
          "type": "string"
        }
      ],
      "name": "mintNFT",
      "outputs": [
        {
          "internalType": "uint256",
          "name": "",
          "type": "uint256"
        }
      ],
      "stateMutability": "nonpayable",
      "type": "function"
    },
    {
      "inputs": [],
      "name": "name",
      "outputs": [
        {
          "internalType": "string",
          "name": "",
          "type": "string"
        }
      ],
      "stateMutability": "view",
      "type": "function"
    },
    {
      "inputs": [],
      "name": "owner",
      "outputs": [
        {
          "internalType": "address",
          "name": "",
          "type": "address"
        }
      ],
      "stateMutability": "view",
      "type": "function"
    },
    {
      "inputs": [
        {
          "internalType": "uint256",
          "name": "tokenId",
          "type": "uint256"
        }
      ],
      "name": "ownerOf",
      "outputs": [
        {
          "internalType": "address",
          "name": "",
          "type": "address"
        }
      ],
      "stateMutability": "view",
      "type": "function"
    },
    {
      "inputs": [],
      "name": "renounceOwnership",
      "outputs": [],
      "stateMutability": "nonpayable",
      "type": "function"
    },
    {
      "inputs": [
        {
          "internalType": "address",
          "name": "from",
          "type": "address"
        },
        {
          "internalType": "address",
          "name": "to",
          "type": "address"
        },
        {
          "internalType": "uint256",
          "name": "tokenId",
          "type": "uint256"
        }
      ],
      "name": "safeTransferFrom",
      "outputs": [],
      "stateMutability": "nonpayable",
      "type": "function"
    },
    {
      "inputs": [
        {
          "internalType": "address",
          "name": "from",
          "type": "address"
        },
        {
          "internalType": "address",
          "name": "to",
          "type": "address"
        },
        {
          "internalType": "uint256",
          "name": "tokenId",
          "type": "uint256"
        },
        {
          "internalType": "bytes",
          "name": "_data",
          "type": "bytes"
        }
      ],
      "name": "safeTransferFrom",
      "outputs": [],
      "stateMutability": "nonpayable",
      "type": "function"
    },
    {
      "inputs": [
        {
          "internalType": "address",
          "name": "operator",
          "type": "address"
        },
        {
          "internalType": "bool",
          "name": "approved",
          "type": "bool"
        }
      ],
      "name": "setApprovalForAll",
      "outputs": [],
      "stateMutability": "nonpayable",
      "type": "function"
    },
    {
      "inputs": [
        {
          "internalType": "bytes4",
          "name": "interfaceId",
          "type": "bytes4"
        }
      ],
      "name": "supportsInterface",
      "outputs": [
        {
          "internalType": "bool",
          "name": "",
          "type": "bool"
        }
      ],
      "stateMutability": "view",
      "type": "function"
    },
    {
      "inputs": [],
      "name": "symbol",
      "outputs": [
        {
          "internalType": "string",
          "name": "",
          "type": "string"
        }
      ],
      "stateMutability": "view",
      "type": "function"
    },
    {
      "inputs": [
        {
          "internalType": "uint256",
          "name": "tokenId",
          "type": "uint256"
        }
      ],
      "name": "tokenURI",
      "outputs": [
        {
          "internalType": "string",
          "name": "",
          "type": "string"
        }
      ],
      "stateMutability": "view",
      "type": "function"
    },
    {
      "inputs": [
        {
          "internalType": "address",
          "name": "from",
          "type": "address"
        },
        {
          "internalType": "address",
          "name": "to",
          "type": "address"
        },
        {
          "internalType": "uint256",
          "name": "tokenId",
          "type": "uint256"
        }
      ],
      "name": "transferFrom",
      "outputs": [],
      "stateMutability": "nonpayable",
      "type": "function"
    },
    {
      "inputs": [
        {
          "internalType": "address",
          "name": "newOwner",
          "type": "address"
        }
      ],
      "name": "transferOwnership",
      "outputs": [],
      "stateMutability": "nonpayable",
      "type": "function"
    }
  ],
  "bytecode": "0x60806040523480156200001157600080fd5b506040518060400160405280600c81526020017f67616d6556657273654e465400000000000000000000000000000000000000008152506040518060400160405280600981526020017f67616d6556657273650000000000000000000000000000000000000000000000815250816000908051906020019062000096929190620001a6565b508060019080519060200190620000af929190620001a6565b505050620000d2620000c6620000d860201b60201c565b620000e060201b60201c565b620002bb565b600033905090565b6000600760009054906101000a900473ffffffffffffffffffffffffffffffffffffffff16905081600760006101000a81548173ffffffffffffffffffffffffffffffffffffffff021916908373ffffffffffffffffffffffffffffffffffffffff1602179055508173ffffffffffffffffffffffffffffffffffffffff168173ffffffffffffffffffffffffffffffffffffffff167f8be0079c531659141344cd1fd0a4f28419497f9722a3daafe3b4186f6b6457e060405160405180910390a35050565b828054620001b49062000256565b90600052602060002090601f016020900481019282620001d8576000855562000224565b82601f10620001f357805160ff191683800117855562000224565b8280016001018555821562000224579182015b828111156200022357825182559160200191906001019062000206565b5b50905062000233919062000237565b5090565b5b808211156200025257600081600090555060010162000238565b5090565b600060028204905060018216806200026f57607f821691505b602082108114156200028657620002856200028c565b5b50919050565b7f4e487b7100000000000000000000000000000000000000000000000000000000600052602260045260246000fd5b612fd280620002cb6000396000f3fe608060405234801561001057600080fd5b50600436106101215760003560e01c8063715018a6116100ad578063c87b56dd11610071578063c87b56dd146102f2578063e985e9c514610322578063eacabe1414610352578063f2fde38b14610382578063f78072f91461039e57610121565b8063715018a6146102745780638da5cb5b1461027e57806395d89b411461029c578063a22cb465146102ba578063b88d4fde146102d657610121565b806323b872dd116100f457806323b872dd146101c057806342842e0e146101dc5780636352211e146101f8578063700dbd101461022857806370a082311461024457610121565b806301ffc9a71461012657806306fdde0314610156578063081812fc14610174578063095ea7b3146101a4575b600080fd5b610140600480360381019061013b9190612080565b6103bc565b60405161014d91906128ea565b60405180910390f35b61015e61049e565b60405161016b9190612905565b60405180910390f35b61018e600480360381019061018991906120d2565b610530565b60405161019b9190612883565b60405180910390f35b6101be60048036038101906101b99190612044565b6105b5565b005b6101da60048036038101906101d59190611eea565b6106cd565b005b6101f660048036038101906101f19190611eea565b61072d565b005b610212600480360381019061020d91906120d2565b61074d565b60405161021f9190612883565b60405180910390f35b610242600480360381019061023d9190611e85565b6107ff565b005b61025e60048036038101906102599190611e85565b6108bf565b60405161026b9190612b67565b60405180910390f35b61027c610977565b005b6102866109ff565b6040516102939190612883565b60405180910390f35b6102a4610a29565b6040516102b19190612905565b60405180910390f35b6102d460048036038101906102cf9190611fb4565b610abb565b005b6102f060048036038101906102eb9190611f39565b610ad1565b005b61030c600480360381019061030791906120d2565b610b33565b6040516103199190612905565b60405180910390f35b61033c60048036038101906103379190611eae565b610c85565b60405161034991906128ea565b60405180910390f35b61036c60048036038101906103679190611ff0565b610d19565b6040516103799190612b67565b60405180910390f35b61039c60048036038101906103979190611e85565b610dab565b005b6103a6610ea3565b6040516103b39190612883565b60405180910390f35b60007f80ac58cd000000000000000000000000000000000000000000000000000000007bffffffffffffffffffffffffffffffffffffffffffffffffffffffff1916827bffffffffffffffffffffffffffffffffffffffffffffffffffffffff1916148061048757507f5b5e139f000000000000000000000000000000000000000000000000000000007bffffffffffffffffffffffffffffffffffffffffffffffffffffffff1916827bffffffffffffffffffffffffffffffffffffffffffffffffffffffff1916145b80610497575061049682610ec9565b5b9050919050565b6060600080546104ad90612dc7565b80601f01602080910402602001604051908101604052809291908181526020018280546104d990612dc7565b80156105265780601f106104fb57610100808354040283529160200191610526565b820191906000526020600020905b81548152906001019060200180831161050957829003601f168201915b5050505050905090565b600061053b82610f33565b61057a576040517f08c379a000000000000000000000000000000000000000000000000000000000815260040161057190612aa7565b60405180910390fd5b6004600083815260200190815260200160002060009054906101000a900473ffffffffffffffffffffffffffffffffffffffff169050919050565b60006105c08261074d565b90508073ffffffffffffffffffffffffffffffffffffffff168373ffffffffffffffffffffffffffffffffffffffff161415610631576040517f08c379a000000000000000000000000000000000000000000000000000000000815260040161062890612b27565b60405180910390fd5b8073ffffffffffffffffffffffffffffffffffffffff16610650610f9f565b73ffffffffffffffffffffffffffffffffffffffff16148061067f575061067e81610679610f9f565b610c85565b5b6106be576040517f08c379a00000000000000000000000000000000000000000000000000000000081526004016106b5906129e7565b60405180910390fd5b6106c88383610fa7565b505050565b6106de6106d8610f9f565b82611060565b61071d576040517f08c379a000000000000000000000000000000000000000000000000000000000815260040161071490612b47565b60405180910390fd5b61072883838361113e565b505050565b61074883838360405180602001604052806000815250610ad1565b505050565b6000806002600084815260200190815260200160002060009054906101000a900473ffffffffffffffffffffffffffffffffffffffff169050600073ffffffffffffffffffffffffffffffffffffffff168173ffffffffffffffffffffffffffffffffffffffff1614156107f6576040517f08c379a00000000000000000000000000000000000000000000000000000000081526004016107ed90612a27565b60405180910390fd5b80915050919050565b610807610f9f565b73ffffffffffffffffffffffffffffffffffffffff166108256109ff565b73ffffffffffffffffffffffffffffffffffffffff161461087b576040517f08c379a000000000000000000000000000000000000000000000000000000000815260040161087290612ac7565b60405180910390fd5b80600960006101000a81548173ffffffffffffffffffffffffffffffffffffffff021916908373ffffffffffffffffffffffffffffffffffffffff16021790555050565b60008073ffffffffffffffffffffffffffffffffffffffff168273ffffffffffffffffffffffffffffffffffffffff161415610930576040517f08c379a000000000000000000000000000000000000000000000000000000000815260040161092790612a07565b60405180910390fd5b600360008373ffffffffffffffffffffffffffffffffffffffff1673ffffffffffffffffffffffffffffffffffffffff168152602001908152602001600020549050919050565b61097f610f9f565b73ffffffffffffffffffffffffffffffffffffffff1661099d6109ff565b73ffffffffffffffffffffffffffffffffffffffff16146109f3576040517f08c379a00000000000000000000000000000000000000000000000000000000081526004016109ea90612ac7565b60405180910390fd5b6109fd600061139a565b565b6000600760009054906101000a900473ffffffffffffffffffffffffffffffffffffffff16905090565b606060018054610a3890612dc7565b80601f0160208091040260200160405190810160405280929190818152602001828054610a6490612dc7565b8015610ab15780601f10610a8657610100808354040283529160200191610ab1565b820191906000526020600020905b815481529060010190602001808311610a9457829003601f168201915b5050505050905090565b610acd610ac6610f9f565b8383611460565b5050565b610ae2610adc610f9f565b83611060565b610b21576040517f08c379a0000000000000000000000000000000000000000000000000000000008152600401610b1890612b47565b60405180910390fd5b610b2d848484846115cd565b50505050565b6060610b3e82610f33565b610b7d576040517f08c379a0000000000000000000000000000000000000000000000000000000008152600401610b7490612a87565b60405180910390fd5b6000600660008481526020019081526020016000208054610b9d90612dc7565b80601f0160208091040260200160405190810160405280929190818152602001828054610bc990612dc7565b8015610c165780601f10610beb57610100808354040283529160200191610c16565b820191906000526020600020905b815481529060010190602001808311610bf957829003601f168201915b505050505090506000610c27611629565b9050600081511415610c3d578192505050610c80565b600082511115610c72578082604051602001610c5a92919061285f565b60405160208183030381529060405292505050610c80565b610c7b84611640565b925050505b919050565b6000600560008473ffffffffffffffffffffffffffffffffffffffff1673ffffffffffffffffffffffffffffffffffffffff16815260200190815260200160002060008373ffffffffffffffffffffffffffffffffffffffff1673ffffffffffffffffffffffffffffffffffffffff16815260200190815260200160002060009054906101000a900460ff16905092915050565b6000600960009054906101000a900473ffffffffffffffffffffffffffffffffffffffff1673ffffffffffffffffffffffffffffffffffffffff163373ffffffffffffffffffffffffffffffffffffffff1614610d7557600080fd5b610d7f60086116e7565b6000610d8b60086116fd565b9050610d97848261170b565b610da181846118d9565b8091505092915050565b610db3610f9f565b73ffffffffffffffffffffffffffffffffffffffff16610dd16109ff565b73ffffffffffffffffffffffffffffffffffffffff1614610e27576040517f08c379a0000000000000000000000000000000000000000000000000000000008152600401610e1e90612ac7565b60405180910390fd5b600073ffffffffffffffffffffffffffffffffffffffff168173ffffffffffffffffffffffffffffffffffffffff161415610e97576040517f08c379a0000000000000000000000000000000000000000000000000000000008152600401610e8e90612947565b60405180910390fd5b610ea08161139a565b50565b600960009054906101000a900473ffffffffffffffffffffffffffffffffffffffff1681565b60007f01ffc9a7000000000000000000000000000000000000000000000000000000007bffffffffffffffffffffffffffffffffffffffffffffffffffffffff1916827bffffffffffffffffffffffffffffffffffffffffffffffffffffffff1916149050919050565b60008073ffffffffffffffffffffffffffffffffffffffff166002600084815260200190815260200160002060009054906101000a900473ffffffffffffffffffffffffffffffffffffffff1673ffffffffffffffffffffffffffffffffffffffff1614159050919050565b600033905090565b816004600083815260200190815260200160002060006101000a81548173ffffffffffffffffffffffffffffffffffffffff021916908373ffffffffffffffffffffffffffffffffffffffff160217905550808273ffffffffffffffffffffffffffffffffffffffff1661101a8361074d565b73ffffffffffffffffffffffffffffffffffffffff167f8c5be1e5ebec7d5bd14f71427d1e84f3dd0314c0f7b2291e5b200ac8c7c3b92560405160405180910390a45050565b600061106b82610f33565b6110aa576040517f08c379a00000000000000000000000000000000000000000000000000000000081526004016110a1906129c7565b60405180910390fd5b60006110b58361074d565b90508073ffffffffffffffffffffffffffffffffffffffff168473ffffffffffffffffffffffffffffffffffffffff16148061112457508373ffffffffffffffffffffffffffffffffffffffff1661110c84610530565b73ffffffffffffffffffffffffffffffffffffffff16145b8061113557506111348185610c85565b5b91505092915050565b8273ffffffffffffffffffffffffffffffffffffffff1661115e8261074d565b73ffffffffffffffffffffffffffffffffffffffff16146111b4576040517f08c379a00000000000000000000000000000000000000000000000000000000081526004016111ab90612ae7565b60405180910390fd5b600073ffffffffffffffffffffffffffffffffffffffff168273ffffffffffffffffffffffffffffffffffffffff161415611224576040517f08c379a000000000000000000000000000000000000000000000000000000000815260040161121b90612987565b60405180910390fd5b61122f83838361194d565b61123a600082610fa7565b6001600360008573ffffffffffffffffffffffffffffffffffffffff1673ffffffffffffffffffffffffffffffffffffffff168152602001908152602001600020600082825461128a9190612cdd565b925050819055506001600360008473ffffffffffffffffffffffffffffffffffffffff1673ffffffffffffffffffffffffffffffffffffffff16815260200190815260200160002060008282546112e19190612c56565b92505081905550816002600083815260200190815260200160002060006101000a81548173ffffffffffffffffffffffffffffffffffffffff021916908373ffffffffffffffffffffffffffffffffffffffff160217905550808273ffffffffffffffffffffffffffffffffffffffff168473ffffffffffffffffffffffffffffffffffffffff167fddf252ad1be2c89b69c2b068fc378daa952ba7f163c4a11628f55a4df523b3ef60405160405180910390a4505050565b6000600760009054906101000a900473ffffffffffffffffffffffffffffffffffffffff16905081600760006101000a81548173ffffffffffffffffffffffffffffffffffffffff021916908373ffffffffffffffffffffffffffffffffffffffff1602179055508173ffffffffffffffffffffffffffffffffffffffff168173ffffffffffffffffffffffffffffffffffffffff167f8be0079c531659141344cd1fd0a4f28419497f9722a3daafe3b4186f6b6457e060405160405180910390a35050565b8173ffffffffffffffffffffffffffffffffffffffff168373ffffffffffffffffffffffffffffffffffffffff1614156114cf576040517f08c379a00000000000000000000000000000000000000000000000000000000081526004016114c6906129a7565b60405180910390fd5b80600560008573ffffffffffffffffffffffffffffffffffffffff1673ffffffffffffffffffffffffffffffffffffffff16815260200190815260200160002060008473ffffffffffffffffffffffffffffffffffffffff1673ffffffffffffffffffffffffffffffffffffffff16815260200190815260200160002060006101000a81548160ff0219169083151502179055508173ffffffffffffffffffffffffffffffffffffffff168373ffffffffffffffffffffffffffffffffffffffff167f17307eab39ab6107e8899845ad3d59bd9653f200f220920489ca2b5937696c31836040516115c091906128ea565b60405180910390a3505050565b6115d884848461113e565b6115e484848484611952565b611623576040517f08c379a000000000000000000000000000000000000000000000000000000000815260040161161a90612927565b60405180910390fd5b50505050565b606060405180602001604052806000815250905090565b606061164b82610f33565b61168a576040517f08c379a000000000000000000000000000000000000000000000000000000000815260040161168190612b07565b60405180910390fd5b6000611694611629565b905060008151116116b457604051806020016040528060008152506116df565b806116be84611ae9565b6040516020016116cf92919061285f565b6040516020818303038152906040525b915050919050565b6001816000016000828254019250508190555050565b600081600001549050919050565b600073ffffffffffffffffffffffffffffffffffffffff168273ffffffffffffffffffffffffffffffffffffffff16141561177b576040517f08c379a000000000000000000000000000000000000000000000000000000000815260040161177290612a67565b60405180910390fd5b61178481610f33565b156117c4576040517f08c379a00000000000000000000000000000000000000000000000000000000081526004016117bb90612967565b60405180910390fd5b6117d06000838361194d565b6001600360008473ffffffffffffffffffffffffffffffffffffffff1673ffffffffffffffffffffffffffffffffffffffff16815260200190815260200160002060008282546118209190612c56565b92505081905550816002600083815260200190815260200160002060006101000a81548173ffffffffffffffffffffffffffffffffffffffff021916908373ffffffffffffffffffffffffffffffffffffffff160217905550808273ffffffffffffffffffffffffffffffffffffffff16600073ffffffffffffffffffffffffffffffffffffffff167fddf252ad1be2c89b69c2b068fc378daa952ba7f163c4a11628f55a4df523b3ef60405160405180910390a45050565b6118e282610f33565b611921576040517f08c379a000000000000000000000000000000000000000000000000000000000815260040161191890612a47565b60405180910390fd5b80600660008481526020019081526020016000209080519060200190611948929190611ca9565b505050565b505050565b60006119738473ffffffffffffffffffffffffffffffffffffffff16611c96565b15611adc578373ffffffffffffffffffffffffffffffffffffffff1663150b7a0261199c610f9f565b8786866040518563ffffffff1660e01b81526004016119be949392919061289e565b602060405180830381600087803b1580156119d857600080fd5b505af1925050508015611a0957506040513d601f19601f82011682018060405250810190611a0691906120a9565b60015b611a8c573d8060008114611a39576040519150601f19603f3d011682016040523d82523d6000602084013e611a3e565b606091505b50600081511415611a84576040517f08c379a0000000000000000000000000000000000000000000000000000000008152600401611a7b90612927565b60405180910390fd5b805181602001fd5b63150b7a0260e01b7bffffffffffffffffffffffffffffffffffffffffffffffffffffffff1916817bffffffffffffffffffffffffffffffffffffffffffffffffffffffff191614915050611ae1565b600190505b949350505050565b60606000821415611b31576040518060400160405280600181526020017f30000000000000000000000000000000000000000000000000000000000000008152509050611c91565b600082905060005b60008214611b63578080611b4c90612df9565b915050600a82611b5c9190612cac565b9150611b39565b60008167ffffffffffffffff811115611ba5577f4e487b7100000000000000000000000000000000000000000000000000000000600052604160045260246000fd5b6040519080825280601f01601f191660200182016040528015611bd75781602001600182028036833780820191505090505b5090505b60008514611c8a57600182611bf09190612cdd565b9150600a85611bff9190612e42565b6030611c0b9190612c56565b60f81b818381518110611c47577f4e487b7100000000000000000000000000000000000000000000000000000000600052603260045260246000fd5b60200101907effffffffffffffffffffffffffffffffffffffffffffffffffffffffffffff1916908160001a905350600a85611c839190612cac565b9450611bdb565b8093505050505b919050565b600080823b905060008111915050919050565b828054611cb590612dc7565b90600052602060002090601f016020900481019282611cd75760008555611d1e565b82601f10611cf057805160ff1916838001178555611d1e565b82800160010185558215611d1e579182015b82811115611d1d578251825591602001919060010190611d02565b5b509050611d2b9190611d2f565b5090565b5b80821115611d48576000816000905550600101611d30565b5090565b6000611d5f611d5a84612bb3565b612b82565b905082815260208101848484011115611d7757600080fd5b611d82848285612d85565b509392505050565b6000611d9d611d9884612be3565b612b82565b905082815260208101848484011115611db557600080fd5b611dc0848285612d85565b509392505050565b600081359050611dd781612f40565b92915050565b600081359050611dec81612f57565b92915050565b600081359050611e0181612f6e565b92915050565b600081519050611e1681612f6e565b92915050565b600082601f830112611e2d57600080fd5b8135611e3d848260208601611d4c565b91505092915050565b600082601f830112611e5757600080fd5b8135611e67848260208601611d8a565b91505092915050565b600081359050611e7f81612f85565b92915050565b600060208284031215611e9757600080fd5b6000611ea584828501611dc8565b91505092915050565b60008060408385031215611ec157600080fd5b6000611ecf85828601611dc8565b9250506020611ee085828601611dc8565b9150509250929050565b600080600060608486031215611eff57600080fd5b6000611f0d86828701611dc8565b9350506020611f1e86828701611dc8565b9250506040611f2f86828701611e70565b9150509250925092565b60008060008060808587031215611f4f57600080fd5b6000611f5d87828801611dc8565b9450506020611f6e87828801611dc8565b9350506040611f7f87828801611e70565b925050606085013567ffffffffffffffff811115611f9c57600080fd5b611fa887828801611e1c565b91505092959194509250565b60008060408385031215611fc757600080fd5b6000611fd585828601611dc8565b9250506020611fe685828601611ddd565b9150509250929050565b6000806040838503121561200357600080fd5b600061201185828601611dc8565b925050602083013567ffffffffffffffff81111561202e57600080fd5b61203a85828601611e46565b9150509250929050565b6000806040838503121561205757600080fd5b600061206585828601611dc8565b925050602061207685828601611e70565b9150509250929050565b60006020828403121561209257600080fd5b60006120a084828501611df2565b91505092915050565b6000602082840312156120bb57600080fd5b60006120c984828501611e07565b91505092915050565b6000602082840312156120e457600080fd5b60006120f284828501611e70565b91505092915050565b61210481612d11565b82525050565b61211381612d23565b82525050565b600061212482612c13565b61212e8185612c29565b935061213e818560208601612d94565b61214781612f2f565b840191505092915050565b600061215d82612c1e565b6121678185612c3a565b9350612177818560208601612d94565b61218081612f2f565b840191505092915050565b600061219682612c1e565b6121a08185612c4b565b93506121b0818560208601612d94565b80840191505092915050565b60006121c9603283612c3a565b91507f4552433732313a207472616e7366657220746f206e6f6e20455243373231526560008301527f63656976657220696d706c656d656e74657200000000000000000000000000006020830152604082019050919050565b600061222f602683612c3a565b91507f4f776e61626c653a206e6577206f776e657220697320746865207a65726f206160008301527f64647265737300000000000000000000000000000000000000000000000000006020830152604082019050919050565b6000612295601c83612c3a565b91507f4552433732313a20746f6b656e20616c7265616479206d696e746564000000006000830152602082019050919050565b60006122d5602483612c3a565b91507f4552433732313a207472616e7366657220746f20746865207a65726f2061646460008301527f72657373000000000000000000000000000000000000000000000000000000006020830152604082019050919050565b600061233b601983612c3a565b91507f4552433732313a20617070726f766520746f2063616c6c6572000000000000006000830152602082019050919050565b600061237b602c83612c3a565b91507f4552433732313a206f70657261746f7220717565727920666f72206e6f6e657860008301527f697374656e7420746f6b656e00000000000000000000000000000000000000006020830152604082019050919050565b60006123e1603883612c3a565b91507f4552433732313a20617070726f76652063616c6c6572206973206e6f74206f7760008301527f6e6572206e6f7220617070726f76656420666f7220616c6c00000000000000006020830152604082019050919050565b6000612447602a83612c3a565b91507f4552433732313a2062616c616e636520717565727920666f7220746865207a6560008301527f726f2061646472657373000000000000000000000000000000000000000000006020830152604082019050919050565b60006124ad602983612c3a565b91507f4552433732313a206f776e657220717565727920666f72206e6f6e657869737460008301527f656e7420746f6b656e00000000000000000000000000000000000000000000006020830152604082019050919050565b6000612513602e83612c3a565b91507f45524337323155524953746f726167653a2055524920736574206f66206e6f6e60008301527f6578697374656e7420746f6b656e0000000000000000000000000000000000006020830152604082019050919050565b6000612579602083612c3a565b91507f4552433732313a206d696e7420746f20746865207a65726f20616464726573736000830152602082019050919050565b60006125b9603183612c3a565b91507f45524337323155524953746f726167653a2055524920717565727920666f722060008301527f6e6f6e6578697374656e7420746f6b656e0000000000000000000000000000006020830152604082019050919050565b600061261f602c83612c3a565b91507f4552433732313a20617070726f76656420717565727920666f72206e6f6e657860008301527f697374656e7420746f6b656e00000000000000000000000000000000000000006020830152604082019050919050565b6000612685602083612c3a565b91507f4f776e61626c653a2063616c6c6572206973206e6f7420746865206f776e65726000830152602082019050919050565b60006126c5602983612c3a565b91507f4552433732313a207472616e73666572206f6620746f6b656e2074686174206960008301527f73206e6f74206f776e00000000000000000000000000000000000000000000006020830152604082019050919050565b600061272b602f83612c3a565b91507f4552433732314d657461646174613a2055524920717565727920666f72206e6f60008301527f6e6578697374656e7420746f6b656e00000000000000000000000000000000006020830152604082019050919050565b6000612791602183612c3a565b91507f4552433732313a20617070726f76616c20746f2063757272656e74206f776e6560008301527f72000000000000000000000000000000000000000000000000000000000000006020830152604082019050919050565b60006127f7603183612c3a565b91507f4552433732313a207472616e736665722063616c6c6572206973206e6f74206f60008301527f776e6572206e6f7220617070726f7665640000000000000000000000000000006020830152604082019050919050565b61285981612d7b565b82525050565b600061286b828561218b565b9150612877828461218b565b91508190509392505050565b600060208201905061289860008301846120fb565b92915050565b60006080820190506128b360008301876120fb565b6128c060208301866120fb565b6128cd6040830185612850565b81810360608301526128df8184612119565b905095945050505050565b60006020820190506128ff600083018461210a565b92915050565b6000602082019050818103600083015261291f8184612152565b905092915050565b60006020820190508181036000830152612940816121bc565b9050919050565b6000602082019050818103600083015261296081612222565b9050919050565b6000602082019050818103600083015261298081612288565b9050919050565b600060208201905081810360008301526129a0816122c8565b9050919050565b600060208201905081810360008301526129c08161232e565b9050919050565b600060208201905081810360008301526129e08161236e565b9050919050565b60006020820190508181036000830152612a00816123d4565b9050919050565b60006020820190508181036000830152612a208161243a565b9050919050565b60006020820190508181036000830152612a40816124a0565b9050919050565b60006020820190508181036000830152612a6081612506565b9050919050565b60006020820190508181036000830152612a808161256c565b9050919050565b60006020820190508181036000830152612aa0816125ac565b9050919050565b60006020820190508181036000830152612ac081612612565b9050919050565b60006020820190508181036000830152612ae081612678565b9050919050565b60006020820190508181036000830152612b00816126b8565b9050919050565b60006020820190508181036000830152612b208161271e565b9050919050565b60006020820190508181036000830152612b4081612784565b9050919050565b60006020820190508181036000830152612b60816127ea565b9050919050565b6000602082019050612b7c6000830184612850565b92915050565b6000604051905081810181811067ffffffffffffffff82111715612ba957612ba8612f00565b5b8060405250919050565b600067ffffffffffffffff821115612bce57612bcd612f00565b5b601f19601f8301169050602081019050919050565b600067ffffffffffffffff821115612bfe57612bfd612f00565b5b601f19601f8301169050602081019050919050565b600081519050919050565b600081519050919050565b600082825260208201905092915050565b600082825260208201905092915050565b600081905092915050565b6000612c6182612d7b565b9150612c6c83612d7b565b9250827fffffffffffffffffffffffffffffffffffffffffffffffffffffffffffffffff03821115612ca157612ca0612e73565b5b828201905092915050565b6000612cb782612d7b565b9150612cc283612d7b565b925082612cd257612cd1612ea2565b5b828204905092915050565b6000612ce882612d7b565b9150612cf383612d7b565b925082821015612d0657612d05612e73565b5b828203905092915050565b6000612d1c82612d5b565b9050919050565b60008115159050919050565b60007fffffffff0000000000000000000000000000000000000000000000000000000082169050919050565b600073ffffffffffffffffffffffffffffffffffffffff82169050919050565b6000819050919050565b82818337600083830152505050565b60005b83811015612db2578082015181840152602081019050612d97565b83811115612dc1576000848401525b50505050565b60006002820490506001821680612ddf57607f821691505b60208210811415612df357612df2612ed1565b5b50919050565b6000612e0482612d7b565b91507fffffffffffffffffffffffffffffffffffffffffffffffffffffffffffffffff821415612e3757612e36612e73565b5b600182019050919050565b6000612e4d82612d7b565b9150612e5883612d7b565b925082612e6857612e67612ea2565b5b828206905092915050565b7f4e487b7100000000000000000000000000000000000000000000000000000000600052601160045260246000fd5b7f4e487b7100000000000000000000000000000000000000000000000000000000600052601260045260246000fd5b7f4e487b7100000000000000000000000000000000000000000000000000000000600052602260045260246000fd5b7f4e487b7100000000000000000000000000000000000000000000000000000000600052604160045260246000fd5b6000601f19601f8301169050919050565b612f4981612d11565b8114612f5457600080fd5b50565b612f6081612d23565b8114612f6b57600080fd5b50565b612f7781612d2f565b8114612f8257600080fd5b50565b612f8e81612d7b565b8114612f9957600080fd5b5056fea26469706673582212208288637f4fa1e36220d5dc5901b0e2731b113bdecf7e436064256ce9edd8614e64736f6c63430008000033",
  "linkReferences": {},
  "deployedLinkReferences": {}
}